{
  "contractName": "CoinFlip",
  "abi": [
    {
      "inputs": [],
      "payable": false,
      "stateMutability": "nonpayable",
      "type": "constructor"
    },
    {
      "constant": true,
      "inputs": [],
      "name": "contractOwner",
      "outputs": [
        {
          "internalType": "address",
          "name": "",
          "type": "address"
        }
      ],
      "payable": false,
      "stateMutability": "view",
      "type": "function"
    },
    {
      "constant": false,
      "inputs": [
        {
          "internalType": "uint256",
          "name": "_headOrTail",
          "type": "uint256"
        }
      ],
      "name": "placeBet",
      "outputs": [],
      "payable": true,
      "stateMutability": "payable",
      "type": "function"
    },
    {
      "constant": true,
      "inputs": [],
      "name": "getBet",
      "outputs": [
        {
          "internalType": "address",
          "name": "player",
          "type": "address"
        },
        {
          "internalType": "uint256",
          "name": "headOrTail",
          "type": "uint256"
        },
        {
          "internalType": "uint256",
          "name": "amount",
          "type": "uint256"
        },
        {
          "internalType": "bool",
          "name": "result",
          "type": "bool"
        }
      ],
      "payable": false,
      "stateMutability": "view",
      "type": "function"
    },
    {
      "constant": false,
      "inputs": [
        {
          "internalType": "uint256",
          "name": "_amount",
          "type": "uint256"
        }
      ],
      "name": "feedContract",
      "outputs": [],
      "payable": true,
      "stateMutability": "payable",
      "type": "function"
    }
  ],
  "bytecode": "0x608060405234801561001057600080fd5b50336000806101000a81548173ffffffffffffffffffffffffffffffffffffffff021916908373ffffffffffffffffffffffffffffffffffffffff16021790555061078f806100606000396000f3fe60806040526004361061003f5760003560e01c806310fe7c4814610044578063192268d41461007257806320835e8c146100a0578063ce606ee014610110575b600080fd5b6100706004803603602081101561005a57600080fd5b8101908080359060200190929190505050610167565b005b61009e6004803603602081101561008857600080fd5b81019080803590602001909291905050506103c7565b005b3480156100ac57600080fd5b506100b56103da565b604051808573ffffffffffffffffffffffffffffffffffffffff1673ffffffffffffffffffffffffffffffffffffffff1681526020018481526020018381526020018215151515815260200194505050505060405180910390f35b34801561011c57600080fd5b506101256104fa565b604051808273ffffffffffffffffffffffffffffffffffffffff1673ffffffffffffffffffffffffffffffffffffffff16815260200191505060405180910390f35b670de0b6b3a7640000803410156101e6576040517f08c379a00000000000000000000000000000000000000000000000000000000081526004018080602001828103825260168152602001807f796f75206e656564206d6f6e657920746f20706c61790000000000000000000081525060200191505060405180910390fd5b600234023073ffffffffffffffffffffffffffffffffffffffff16311015610276576040517f08c379a00000000000000000000000000000000000000000000000000000000081526004018080602001828103825260128152602001807f62616c616e636520697320746f6f206c6f77000000000000000000000000000081525060200191505060405180910390fd5b60008214806102855750600182145b61028e57600080fd5b610296610711565b6040518060a001604052803373ffffffffffffffffffffffffffffffffffffffff16815260200184815260200134815260200160001515815260200160001515815250905080600160003373ffffffffffffffffffffffffffffffffffffffff1673ffffffffffffffffffffffffffffffffffffffff16815260200190815260200160002060008201518160000160006101000a81548173ffffffffffffffffffffffffffffffffffffffff021916908373ffffffffffffffffffffffffffffffffffffffff160217905550602082015181600101556040820151816002015560608201518160030160006101000a81548160ff02191690831515021790555060808201518160030160016101000a81548160ff0219169083151502179055509050506103c161051f565b50505050565b8060026000828254019250508190555050565b6000806000806103e8610711565b600160003373ffffffffffffffffffffffffffffffffffffffff1673ffffffffffffffffffffffffffffffffffffffff1681526020019081526020016000206040518060a00160405290816000820160009054906101000a900473ffffffffffffffffffffffffffffffffffffffff1673ffffffffffffffffffffffffffffffffffffffff1673ffffffffffffffffffffffffffffffffffffffff16815260200160018201548152602001600282015481526020016003820160009054906101000a900460ff161515151581526020016003820160019054906101000a900460ff1615151515815250509050806000015181602001518260400151836060015183935094509450945094505090919293565b6000809054906101000a900473ffffffffffffffffffffffffffffffffffffffff1681565b6000806002428161052c57fe5b069050610537610711565b600160003373ffffffffffffffffffffffffffffffffffffffff1673ffffffffffffffffffffffffffffffffffffffff1681526020019081526020016000206040518060a00160405290816000820160009054906101000a900473ffffffffffffffffffffffffffffffffffffffff1673ffffffffffffffffffffffffffffffffffffffff1673ffffffffffffffffffffffffffffffffffffffff16815260200160018201548152602001600282015481526020016003820160009054906101000a900460ff161515151581526020016003820160019054906101000a900460ff161515151581525050905081816020015114156106f757600160003373ffffffffffffffffffffffffffffffffffffffff1673ffffffffffffffffffffffffffffffffffffffff16815260200190815260200160002060000160009054906101000a900473ffffffffffffffffffffffffffffffffffffffff1673ffffffffffffffffffffffffffffffffffffffff166108fc82604001519081150290604051600060405180830381858888f193505050501580156106db573d6000803e3d6000fd5b503460026000828254039250508190555060019250505061070e565b346002600082825401925050819055506000925050505b90565b6040518060a00160405280600073ffffffffffffffffffffffffffffffffffffffff1681526020016000815260200160008152602001600015158152602001600015158152509056fea265627a7a7231582067add8c1a031a468092992f0806252a9877ac39c4c69ee814c69d9f5dd653cdd64736f6c634300050c0032",
  "source": "pragma solidity 0.5.12;\n\ncontract CoinFlip{\n\n  address public contractOwner;\n\n  struct Bet{\n    address payable player;\n    uint256 headOrTail;\n    uint amount;\n    bool result;\n    bool played;\n  }\n  mapping(address => Bet) private bets;\n  uint256 private balance;\n\n  constructor() public {\n    contractOwner = msg.sender;\n  }\n  // da testare\n  modifier requireFunds(){\n    require(address(this).balance >= uint256(msg.value)*2, \"balance is too low\");\n    _;\n  }\n  modifier costs (uint cost){\n    require(msg.value >= cost,\"you need money to play\");\n    _;\n  }\n  function placeBet(uint256 _headOrTail) public payable costs(1 ether) requireFunds() {\n    require(_headOrTail == 0 || _headOrTail == 1 );\n    Bet memory newBet = Bet(msg.sender, _headOrTail, msg.value, false,false);\n    bets[msg.sender] = newBet;\n    randomFlip();\n  }\n\n  function randomFlip() internal returns(bool){\n    uint256 result = now%2;\n    Bet memory bet = bets[msg.sender];\n\n    if(bet.headOrTail == result){\n        bets[msg.sender].player.transfer(bet.amount);\n        balance -= uint256(msg.value);\n        return true;\n    }else {\n      balance += uint256(msg.value);\n      return false;\n    }\n  }\n\n    function getBet() view public returns(address player, uint256 headOrTail, uint amount, bool result){\n    Bet memory bet = bets[msg.sender];\n    return(bet.player, bet.headOrTail, bet.amount, bet.result);\n  }\n  //da rivedere\n  function feedContract(uint256 _amount) public payable {\n    balance +=_amount;\n  }\n}\n",
  "sourcePath": "/home/mirko/Scrivania/solidity/CoinFlipDapp/contracts/CoinFlip.sol",
  "compiler": {
    "name": "solc",
    "version": "0.5.12+commit.7709ece9.Emscripten.clang"
  },
  "schemaVersion": "3.0.16",
  "updatedAt": "2020-05-17T13:37:49.878Z",
  "devdoc": {
    "methods": {}
  },
  "userdoc": {
    "methods": {}
  }
}