{
  "contractName": "ConFlip",
  "abi": [
    {
      "inputs": [],
      "payable": false,
      "stateMutability": "nonpayable",
      "type": "constructor"
    },
    {
      "constant": true,
      "inputs": [],
      "name": "contractOwner",
      "outputs": [
        {
          "internalType": "address",
          "name": "",
          "type": "address"
        }
      ],
      "payable": false,
      "stateMutability": "view",
      "type": "function"
    },
    {
      "constant": false,
      "inputs": [
        {
          "internalType": "bool",
          "name": "_headOrTail",
          "type": "bool"
        }
      ],
      "name": "placeBet",
      "outputs": [],
      "payable": true,
      "stateMutability": "payable",
      "type": "function"
    },
    {
      "constant": false,
      "inputs": [],
      "name": "randomFlip",
      "outputs": [
        {
          "internalType": "uint256",
          "name": "",
          "type": "uint256"
        }
      ],
      "payable": false,
      "stateMutability": "nonpayable",
      "type": "function"
    }
  ],
  "bytecode": "0x608060405234801561001057600080fd5b50336000806101000a81548173ffffffffffffffffffffffffffffffffffffffff021916908373ffffffffffffffffffffffffffffffffffffffff16021790555061038b806100606000396000f3fe6080604052600436106100345760003560e01c8063096a377814610039578063ce606ee014610069578063d1927eb9146100c0575b600080fd5b6100676004803603602081101561004f57600080fd5b810190808035151590602001909291905050506100eb565b005b34801561007557600080fd5b5061007e610217565b604051808273ffffffffffffffffffffffffffffffffffffffff1673ffffffffffffffffffffffffffffffffffffffff16815260200191505060405180910390f35b3480156100cc57600080fd5b506100d561023c565b6040518082815260200191505060405180910390f35b60003410156100f957600080fd5b610101610314565b60405180608001604052803373ffffffffffffffffffffffffffffffffffffffff168152602001831515815260200134815260200160001515815250905080600160003373ffffffffffffffffffffffffffffffffffffffff1673ffffffffffffffffffffffffffffffffffffffff16815260200190815260200160002060008201518160000160006101000a81548173ffffffffffffffffffffffffffffffffffffffff021916908373ffffffffffffffffffffffffffffffffffffffff16021790555060208201518160000160146101000a81548160ff0219169083151502179055506040820151816001015560608201518160020160006101000a81548160ff0219169083151502179055509050505050565b6000809054906101000a900473ffffffffffffffffffffffffffffffffffffffff1681565b6000806002428161024957fe5b06905060018114156102b45760018060003373ffffffffffffffffffffffffffffffffffffffff1673ffffffffffffffffffffffffffffffffffffffff16815260200190815260200160002060020160006101000a81548160ff021916908315150217905550610310565b6000600160003373ffffffffffffffffffffffffffffffffffffffff1673ffffffffffffffffffffffffffffffffffffffff16815260200190815260200160002060020160006101000a81548160ff0219169083151502179055505b5090565b6040518060800160405280600073ffffffffffffffffffffffffffffffffffffffff16815260200160001515815260200160008152602001600015158152509056fea265627a7a72315820711b048496b166f99b6ca93ae69ae4926a611560d7c8deb6d716d59e113ff7e764736f6c634300050c0032",
  "source": "pragma solidity 0.5.12;\n\ncontract ConFlip{\n\n  address public contractOwner;\n\n  struct Bet{\n    address player;\n    bool headOrTail;\n    uint amount;\n    bool result;\n  }\n  mapping(address => Bet) private bets;\n\n  constructor() public {\n    contractOwner = msg.sender;\n  }\n\n  function placeBet(bool _headOrTail) public payable {\n    require(msg.value >=0);\n    Bet memory newBet = Bet(msg.sender, _headOrTail, msg.value, false);\n    bets[msg.sender] = newBet;\n  }\n\n  function randomFlip()public returns(uint256){\n    uint256 result = now%2;\n    if(result == 1){\n      bets[msg.sender].result = true;\n    }else{\n      bets[msg.sender].result = false;\n    }\n  }\n\n}\n",
  "sourcePath": "/home/mirko/Scrivania/solidity/CoinFlipDapp/contracts/CoinFlip.sol",
  "compiler": {
    "name": "solc",
    "version": "0.5.12+commit.7709ece9.Emscripten.clang"
  },
  "schemaVersion": "3.0.16",
  "updatedAt": "2020-04-17T14:05:03.108Z",
  "devdoc": {
    "methods": {}
  },
  "userdoc": {
    "methods": {}
  }
}